:020000040800F2
:10000000C80E0020CD010008E12D000815200008D1
:100010002B270008390500088B3F0008000000006E
:100020000000000000000000000000005131000846
:10003000A70C000800000000C52E0008653200086B
:10004000E7010008E7010008E7010008E7010008F0
:10005000E7010008E7010008C50D0008E7010008F6
:10006000E10D0008FD0D0008310E0008650A0008CA
:10007000E7010008E7010008850A0008E701000819
:10008000E7010008E7010008E7010008E7010008B0
:10009000E7010008E7010008E7010008E7010008A0
:1000A000E7010008E7010008E7010008E701000890
:1000B0000935000821350008E7010008E7010008BC
:1000C000E7010008E7010008E7010008E701000870
:1000D000E70100080D3C0008E93C0008ED3C000881
:1000E000E7010008E7010008E7010008E701000850
:1000F000E7010008E7010008E7010008E701000840
:10010000E7010008E7010008F1360008E7010008F0
:10011000E7010008E7010008E7010008E70100081F
:10012000E7010008E7010008E7010008E70100080F
:1001300000F002F800F03AF80AA090E8000C8244BF
:100140008344AAF10107DA4501D100F02FF8AFF29C
:10015000090EBAE80F0013F0010F18BFFB1A43F0A5
:1001600001031847445C0000645C0000103A24BF9F
:1001700078C878C1FAD8520724BF30C830C144BF0C
:1001800004680C607047000000230024002500264E
:10019000103A28BF78C1FBD8520728BF30C148BFEA
:1001A0000B6070471FB51FBD10B510BD00F046F8BD
:1001B0001146FFF7F7FF04F0DDFA00F064F803B42E
:1001C000FFF7F2FF03BC04F017FA0000094880476C
:1001D00009480047FEE7FEE7FEE7FEE7FEE7FEE729
:1001E000FEE7FEE7FEE7FEE704480549054A064B41
:1001F000704700006932000831010008C80800207B
:10020000C80E0020C80A0020C80A002070477047A6
:1002100070477047704710B500F008F8006810BDCF
:1002200010B5044600F002F8046010BD00487047A5
:100230006408002000487047640800207546FFF7F6
:10024000F9FFAE4605006946534620F00700854693
:1002500018B020B5FFF7C8FFBDE820404FF00006FA
:100260004FF000074FF000084FF0000B21F007019E
:10027000AC46ACE8C009ACE8C009ACE8C009ACE8E1
:10028000C0098D46704710B50446AFF30080204684
:10029000BDE81040FFF793BF21B1826842F0010230
:1002A000826003E0826822F001028260704721B11F
:1002B000826842F48072826003E0826822F4807275
:1002C0008260704710B504461248844208D101216B
:1002D000401502F045FE0021601502F041FE17E0D6
:1002E0000D48844208D10121001502F039FE002199
:1002F000201502F035FE0BE00848844208D10121A8
:10030000C80302F02DFE00214FF4004002F028FE49
:1003100010BD00000024014000280140003C0140C5
:10032000014600208A6802F004020AB1012000E0C0
:1003300000207047014600208A6802F008020AB1D6
:10034000012000E00020704730B502460020002365
:1003500050680F4C20400D790C6844EA0524204376
:10036000506090680B4C2040D1E902542C434D79E9
:1003700044EA450420439060D06A20F470000C7C6D
:10038000641EE4B2234340EA0350D06230BD000053
:10039000FFFEF0FFFDF7F1FFF0B504460D4600202B
:1003A0000021092D11DDE068A5F10A0606EB4607DC
:1003B000072606FA07F18843A5F10A0606EB46066A
:1003C00003FA06F10843E0600CE0206905EB4507FD
:1003D000072606FA07F1884305EB450603FA06F1FE
:1003E00008432061072A0FDA606B561E06EB86076A
:1003F0001F2606FA07F18843561E06EB860605FA05
:1004000006F10843606322E00D2A0FDA206BD61F45
:1004100006EB86071F2606FA07F18843D61F06EB70
:10042000860605FA06F10843206310E0E06AA2F1AF
:100430000D0606EB86071F2606FA07F18843A2F190
:100440000D0606EB860605FA06F10843E062F0BDEC
:10045000816841F008018160704721B1826842F4EF
:10046000A002826003E0826822F4A00282607047EA
:10047000816841F0040181607047000000B585B0DB
:100480000121480202F05CFD2848FFF71BFF002015
:10049000009001208DF804008DF805004FF46020D5
:1004A00002900020039002208DF8100069461F483A
:1004B000FFF74AFF4FF4004002F006FD052301223A
:1004C0000A211A48FFF768FF052302220B2117486B
:1004D000FFF762FF01211548FFF7E9FE01211348EC
:1004E000FFF7DAFE1148FFF7B3FF00BF0F48FFF731
:1004F00021FF0028FAD10D48FFF7BAFF00BF0B48D3
:10050000FFF70EFF0028FAD16423094A07494C314E
:10051000084802F0CDF80121064800F0D3FA012185
:100520000248FFF79AFF05B000BD0000002401401B
:10053000C00000200800024000BFFEE710B5002107
:10054000837A012202FA03F13D4A126842F0010265
:100550003B4B1A603A4A1C3212688A43384B1C33B0
:100560001A60027BCAB9364A0C3212688A43344B8D
:100570000C331A604288C38842EA0343304A40324F
:10058000847A42F834300288838842EA03432C4A52
:100590004032847A02EBC4025360027B012A19D1F3
:1005A000274A0C3212680A43254B0C331A604288E2
:1005B000038842EA0343224A4032847A42F83430C4
:1005C000C288838842EA03431D4A4032847A02EBA0
:1005D000C4025360C27A3AB9194A121D12688A439A
:1005E000174B1B1D1A6006E0154A121D12680A43BC
:1005F000134B1B1D1A60028932B9114A143212685A
:100600008A430F4B14331A600289012A06D10C4A1F
:10061000143212680A430A4B14331A60427B012ACF
:1006200006D1074A1C3212680A43054B1C331A6074
:10063000034A126822F00102014B1A6010BD00004B
:100640000066004030B5024600200023146824F004
:1006500002041460146844F00104146000E05B1CA0
:10066000546804F001041CB94FF6FF74A342F6D19C
:10067000546804F001040CB900206CE08C79012C62
:1006800004D1146844F08004146003E0146824F07A
:1006900080041460CC79012C04D1146844F0400427
:1006A000146003E0146824F0400414600C7A012CF8
:1006B00004D1146844F02004146003E0146824F0AA
:1006C000200414604C7A012C04D1146844F0100406
:1006D000146003E0146824F0100414608C7A012C78
:1006E00004D1146844F00804146003E0146824F092
:1006F00008041460CC7A012C04D1146844F004047A
:10070000146003E0146824F0040414608C78A407D7
:10071000CD7844EA05640D7944EA05444D7944EA0C
:1007200005540D886D1E2C43D461146824F0010417
:100730001460002300E05B1C546804F001041CB149
:100740004FF6FF74A342F6D1546804F001040CB1D3
:10075000002000E0012030BD2DE9F04188B00446C2
:100760000D4616461F46DDF838800121042002F0B0
:10077000E7FB0121480602F0C3FB4FF48050ADF8BF
:100780001C0003208DF81E0018208DF81F0007A9FB
:10079000234800F0DFFC4FF40060ADF81C00482057
:1007A0008DF81F0007A91E4800F0D4FC00208DF82A
:1007B00016008DF817008DF8180001208DF819002B
:1007C00000208DF81A008DF81B008DF812808DF82E
:1007D00013408DF814608DF81550ADF8107004A911
:1007E0001048FFF72FFF00208DF80A008DF80B004E
:1007F00001208DF80C000020ADF80000ADF80200DB
:10080000ADF80400ADF80600ADF8080001208DF841
:100810000D006846FFF792FE002008B0BDE8F081A9
:10082000000801400064004010B5024600209368B3
:1008300003F08063B3F1806F00D110E0936803F0A0
:100840000063B3F1006F01D1012008E0936803F069
:100850008053B3F1805F01D1022000E0042004281E
:1008600074D002F5C07303EB00131B6803F001049E
:1008700002F5C07303EB00131C600B7A7BB94B7A53
:100880000C8843EA445302F5C07404EB0014246856
:10089000234302F5C07404EB0014236010E00B7ACC
:1008A0004C6843EAC4034C7A234302F5C07404EB5A
:1008B00000142468234302F5C07404EB0014236081
:1008C0008B7A03F00F038B7202F5C07303EB0013F6
:1008D0005B6823F00F0402F5C07303EB00135C6048
:1008E00002F5C07303EB00135B688C7A234302F5B7
:1008F000C07404EB001463608B7B1C064B7B44EAE2
:1009000003440B7B44EA0323CC7A234302F5C074EF
:1009100004EB0014A3608B7C1C064B7C44EA03446C
:100920000B7C44EA0323CC7B234302F5C07404EB25
:100930000014E36002F5C07303EB00131B6843F07F
:10094000010402F5C07303EB00131C6010BD00002E
:1009500010B50246002321B1012907D002290FD189
:1009600009E090681D4C00EA04030BE090681C4C01
:1009700000EA040306E090681A4C00EA040301E070
:10098000002300BF00BF184C181BA34216D007DC81
:1009900083B16FF08060184470B1022818D111E063
:1009A000B0F5007F10D0114C204448B1B0F5003FA5
:1009B0000ED10BE002230DE000230BE0002309E041
:1009C000002307E0012305E0012303E0012301E008
:1009D000002300BF00BFD8B210BD00000300000418
:1009E0000003000800000310000100080001FFF7E9
:1009F0002DE9F04186B00746884615460024019748
:100A0000002002908DF80C008DF80D008DF80E502E
:100A100000BF06E018F804100DF10F000155601C2E
:100A200084B2AC42F6DB01A90D48FFF7FDFE064695
:100A3000002401E0601C84B231460948FFF788FFBA
:100A400018B940F6FF708442F4DB40F6FF70844230
:100A500003DB012006B0BDE8F0810020FAE70000CA
:100A60000064004010B5022000F0DEF830B1002133
:100A70000348FFF711FC012000F016F810BD00003C
:100A80000024014010B54FF4005000F0CDF840B103
:100A900000228021034803F0A3F94FF4805000F0B6
:100AA00003F810BD0038014000F0805111B1034936
:100AB000086001E0024948607047000004040240F9
:100AC0000000024021B1026842F00102026004E02D
:100AD00002684FF6FE731A400260704701684FF6D5
:100AE000FE72114001600021016041608160C160BF
:100AF0004B49884208D14A490839496841F00F01F9
:100B0000474A083A51608AE045491431884208D181
:100B100043490839496841F0F001414A083A5160B7
:100B20007DE03F492831884208D13D49083949686C
:100B300041F470613A4A083A516070E038493C31FA
:100B4000884208D136490839496841F47041344A2D
:100B5000083A516063E032495031884208D1304947
:100B60000839496841F470212D4A083A516056E02D
:100B70002B496431884208D129490839496841F430
:100B80007001274A083A516049E025497831884286
:100B900008D123490839496841F07061204A083A70
:100BA00051603CE01F49884206D1011F096841F0AD
:100BB0000F01021F116032E01A491431884208D136
:100BC0001849091F096841F0F001164A121F116007
:100BD00025E014492831884208D11249091F0968C3
:100BE00041F470610F4A121F116018E00D493C3149
:100BF000884208D10B49091F096841F47041094A2C
:100C0000121F11600BE007495031884207D1054996
:100C1000091F096841F47021024A121F11607047D0
:100C2000080002400804024001460020002201F0B2
:100C3000805313B1054B1A6801E0054B1A6802EAAC
:100C400001030BB1012000E00020704700040240C6
:100C5000000002401AB103680B43036002E003681E
:100C60008B430360704710B50022026847F6F073AB
:100C70009A430C6A8B6823430C6923434C692343D2
:100C80008C692343CC6923434C6A23438C6A2343F6
:100C90001A430260CB6843600B6883604B68C36093
:100CA00010BD416070477047F0B5B3B04048008850
:100CB00002282CD1002405E03E48005D01A908551A
:100CC000601CC4B2C82CF7DB0020394908809DF8AD
:100CD00004509DF80560742E17D1092D14D13648A3
:100CE000006888B99DF80A10A1F1640001F062FC67
:100CF000052003F0F3FC9DF80B10A1F15A0004F05D
:100D000075FD074602F00CFA00E000BF00BF2B485B
:100D10000088002849D02948007800F00100B0B1CF
:100D200000F090F9052001F09FF925490978084362
:100D3000234908702048006818B90021084601F0CE
:100D400033FB1E48008880F001001C4908801B48C6
:100D5000007800F0020038B100F0CCF917480088A4
:100D600080F00200154908801448007800F0040063
:100D700060B11348007800F071FF0020104908703E
:100D80000E48008880F004000C4908800B48007869
:100D900000F0080048B100F021FB01F07BF80748A3
:100DA000008880F008000549088033B0F0BD0000DD
:100DB00084000020440500207C00002086000020E4
:100DC0009600002010B50A2003F088FC012103489A
:100DD00000F094FA012000F0ADF810BD00080140C9
:100DE00010B50A2003F07AFC0421034800F086FACB
:100DF000042000F09FF810BD0018014010B50A2033
:100E000003F06CFC0821084800F078FA38B907486C
:100E1000006808B9012000E00020044908600820AB
:100E200000F088F810BD0000001801409401234232
:100E300010B50A2003F052FC1021034800F05EFABE
:100E4000102000F077F810BD001801400EB501F039
:100E5000E3F80121084602F073F80221042000F0B3
:100E600059F90420019000208DF808000C208DF81D
:100E7000090001208DF80A0001A800F061F80321A3
:100E8000042000F047F90820019001A800F058F86C
:100E90000421084600F03EF91020019001A800F05E
:100EA0004FF80021084600F035F901200190082094
:100EB0008DF8090001A800F043F806208DF8000025
:100EC00002208DF8010003208DF8020001208DF82A
:100ED0000300684601F0A6FF08208DF800000220FC
:100EE0008DF8010003208DF8020001208DF8030029
:100EF000684601F097FF09208DF8000002208DF868
:100F0000010003208DF8020001208DF803006846DF
:100F100001F088FF0A208DF8000002208DF8010002
:100F200003208DF8020001208DF80300684601F0CF
:100F300079FF0EBD014908607047000014040140AC
:100F4000002123498279002A3AD00A4612680368B0
:100F50009A430B461A600A1D126803689A430B1DD8
:100F60001A60027911440A6803681A430A60184A31
:100F70000832126803689A43154B08331A601A1D29
:100F8000126803689A43124B0C331A604279102A94
:100F90000ED11A1F126803681A430D4B08331A60EA
:100FA0001A1D126803681A43094B0C331A600DE0CE
:100FB0000749427911440A6803681A430A6005E048
:100FC000027911440A6803689A430A607047000076
:100FD0000004014010B502F037FB10BD70B50446A7
:100FE000012511E0144901EB850131F8140004F0EA
:100FF00015FC0646114850F82410304604F08AFAD1
:101000000E4941F824006D1C0D4800688542E9DB5B
:101010000B48006804F0EAFB0646084951F8240032
:10102000314604F0E5FA054941F8240051F824005E
:1010300004F0BCFB80B270BDC0000020080000209E
:10104000100000202DE9FC5F0020FFF7C7FF83465A
:1010500020490988ABEB010004F0C8FB82461E4919
:1010600009881E4A1288881A04F009F800221C4BCD
:10107000CDE9000104F02EF806460F46504604F074
:101080001DFA804632463B4603F036FE044603F026
:1010900045FD82461349504604F008FC824611493A
:1010A000504604F0CFFC02D2DFF838A006E00E492B
:1010B000504604F0C7FB01D2DFF82CA00B48C0F863
:1010C00010A00B48C0F808A0504604F06FFB80B297
:1010D000BDE8FC9F1600002014000020180000202E
:1010E0000000E03F00000743000007C32005002088
:1010F0008801002010B501210448FFF7CDF86421D4
:10110000034801F002FB00F009F910BD0024014082
:101110000800024030B500228B071C0F0F2303FA92
:1011200004F20B4B8C1053F824309343084C8D1071
:1011300044F8253023468C1053F824308C07240FB4
:1011400000FA04F42343024C8D1044F8253030BDDE
:10115000080001402DE9F04102460025002600204C
:1011600000230024002791F803C00CF00F0591F82C
:1011700003C00CF0100CBCF1000F03D091F802C0BA
:101180004CEA050591F800C0BCF1000F31D014689D
:1011900000202BE04FF0010C0CFA00F3B1F800C076
:1011A0000CEA03069E4220D183004FF00F0C0CFA8C
:1011B00003F7BC4305FA03FC4CEA040491F803C0AE
:1011C000BCF1280F06D14FF0010C0CFA00FCC2F85C
:1011D00014C00AE091F803C0BCF1480F05D14FF0EC
:1011E000010C0CFA00FCC2F810C0401C0828D1D336
:1011F0001460B1F800C0BCF1FF0F34DD546800206A
:101200002EE000F1080C4FF0010808FA0CF3B1F8D9
:1012100000C00CEA03069E4221D183004FF00F0C60
:101220000CFA03F7BC4305FA03FC4CEA040491F8FA
:1012300003C0BCF1280F05D100F1080C08FA0CF826
:10124000C2F8148091F803C0BCF1480F07D100F137
:10125000080C4FF0010808FA0CF8C2F81080401C86
:101260000828CED35460BDE8F0810000F0B50A46EE
:10127000002300240021002500F00046B6F1004FB5
:1012800002D11D4EF16901E01B4E7168C0F30345A8
:1012900083B200F44016B6F5401F08D121F070610A
:1012A000154E766826F07066134F7E6012E000F4EB
:1012B0008016B6F5801F06D1032606FA05F4A14371
:1012C00041F0706106E0460D360103FA06F6B143BF
:1012D00041F0706122B1460D360103FA06F6314342
:1012E00000F00046B6F1004F02D1034EF16101E07B
:1012F000014E7160F0BD0000000001400246002078
:1013000093680B400BB1012000E000207047416161
:10131000704701617047C1607047000030B5B3B0DD
:101320002A48008802284ED1002405E02848005DA4
:1013300001A90855601CC4B2C82CF7DB0020234962
:1013400008809DF80450092D3BD19DF8050004F05C
:1013500065FA204948639DF8060004F05FFA1D49CC
:1013600088639DF8070004F059FA1A49C8639DF88C
:10137000080004F053FA174908649DF8090004F0C6
:101380004DFA144948649DF80A0004F047FA1149DF
:1013900088649DF80B0004F041FA0E49C8649DF87A
:1013A0000C0004F03BFA0B4908659DF80D0004F0B1
:1013B00035FA084948650A2201A9074802F0D4FD18
:1013C00000E000BF00BF33B030BD00008800002047
:1013D0000C06002088010020004400402DE9F04761
:1013E0000120FFF7FBFD8046404604F017FA8146D6
:1013F00004F064F806464FF06632054B03F06AFECF
:10140000044603F08BFB03494860BDE8F087000009
:1014100066664A3F8801002010B50446012C0BD1B6
:1014200000203449086034480068806920B132489F
:101430000068806930490860022C29D101202D49BB
:1014400008602D480068007B20B101281CD00228CC
:101450001CD11AE028480068406927490968B1F999
:101460000210C1EBC10100EB810060B122480068AD
:10147000406921490968B1F90210C1EBC10100EBD3
:1014800081001D49086002E001E000E000BF00BFEC
:10149000042C08D16FF0180001F08CF80021012015
:1014A00000F082FF25E0032C07D1192001F082F81B
:1014B0000021012000F078FF1BE0062C07D100205E
:1014C00001F078F80F21012000F06EFF11E0052CEB
:1014D00008D1002001F06EF86FF00E01012000F03D
:1014E00063FF06E0002001F065F80021012000F014
:1014F0005BFF10BD7C0000205C020020FC48FD4921
:101500004861FD480861FDA0FE490860032008719C
:10151000FD48886000200873FCA0FE490860042094
:101520000871F948001D886000200873FAA0FC4982
:10153000086004200871F4480830886000200873AF
:10154000F8A0F949086003200871EF480C30886062
:1015500000200873F5A008610321F3480175EA48EB
:101560001030F14988610021EF480177F1A0EE4980
:1015700008620321EC4880F82410E3481430EA495B
:1015800088620021E84880F82C10ECA0E649086346
:101590000321E54880F83410DB481830E2498863BD
:1015A0000021E14880F83C10E6A0E84908600420EA
:1015B0000871D5481C30886000200873E4A00861D9
:1015C0000421E2480175D0482030E04988610021BB
:1015D000DE480177E0A0E249086004200871CA48AB
:1015E0002430886000200873DEA008610421DC48F4
:1015F0000175C5482830DA4988610021D84801774B
:10160000DAA0D74908620421D54880F82410BE48E2
:101610002C30D34988620021D14880F82C10D5A005
:10162000CF4908630421CE4880F83410B6483030E2
:10163000CB4988630021CA4880F83C10CFA0D1492B
:10164000086004200871B0483430886000200873B6
:10165000CDA008610421CB480175AB483830C94999
:1016600088610021C7480177C9A0C64908620421E2
:10167000C44880F82410A4483C30C2498862002144
:10168000C04880F82C10C4A0BE4908630421BD489E
:1016900080F834109C484030BA4988630021B9482A
:1016A00080F83C10BEA0B74908640421B54880F812
:1016B000441095484430B34988640021B14880F80B
:1016C0004C10B9A0AF4908650421AE4880F8541009
:1016D0008D484830AB4988650021AA4880F85C10E5
:1016E000B3A0A84908660421A64880F8641086487B
:1016F0004C30A44988660021A24880F86C10AEA046
:10170000A049086704219F4880F874107E48503033
:101710009C49886700219B4880F87C10A8A09949C3
:10172000C1F880000421974880F88410764854302E
:101730009449C1F888000021924880F88C10A2A03A
:10174000A349086003200871A2488860002008733C
:10175000A1A0086103219E4801759E498161002175
:1017600001779FA09A4908620321994880F82410C4
:1017700098498162002180F82C109BA0944908634D
:101780000321934880F8341092498163002180F846
:101790003C1097A08E49086403218D4880F84410BE
:1017A0008C498164002180F84C1054A09249486013
:1017B0000120088000204880012008738F4888613C
:1017C000002048614F4888608D4808614FA18A48D1
:1017D000016201208849888300218748C183012153
:1017E00080F828108549416300210163494941621D
:1017F0008349C16248A1C16301207F490887002154
:101800007D484187012180F844107C490165002111
:10181000C164434901647A4981647AA181650420E5
:101820007549A1F8540000217348A0F85610012111
:1018300080F860107149C166002181663A49C1652E
:101840006F49416671A1416702206B49A1F87000A0
:1018500000216948A0F87210012180F87C106749C6
:10186000C0F888100021C0F88410384981676449A5
:10187000C0F8801067A1C0F8901004205E49A1F85C
:101880008C0000215C48A0F88E10012180F898108F
:101890005A49C0F8A4100021C0F8A0103049C0F87F
:1018A00094105749C0F89C105DA1C0F8AC100920F5
:1018B0005149A1F8A80000214F48A0F8AA10012121
:1018C00080F8B4104D49C0F8C0100021C0F8BC1019
:1018D0002C49C0F8B0104A49C0F8B81051A1C0F85E
:1018E000C81005204449A1F8C400002142489DE0E9
:1018F000332200085C02002049230008535441545D
:10190000555300007003002088010020504F5745B8
:10191000520000008003002054484554410000005C
:101920009003002050505200A003002044454C5426
:10193000415F520044454C54415F4C00445F434179
:10194000520000004F4D47415F520000E00300206D
:101950004F4D47415F4C00004449533000000000A8
:101960000004002044495331000000004449533230
:10197000000000004449533300000000494D553039
:101980000000000040040020494D553100000000D7
:10199000494D553200000000494D5533000000000C
:1019A000494D553400000000494D553500000000F8
:1019B000494D553600000000494D553700000000E4
:1019C000494D553800000000464F57415244000031
:1019D000D00400207C0000204241434B0000000066
:1019E00053544F50000000004C4546540000000086
:1019F0005249474854000000900200207402002021
:101A0000911A0008454E434F444552004F4D4741FF
:101A10000000000044495354414E4345000000007B
:101A2000494D5500434F4E54524F4C00A0F8C6103C
:101A3000012180F8D0100E49C0F8DC100021C0F858
:101A4000D8100C49C0F8CC100B49C0F8D4100020B5
:101A5000074908730948086109A048600820088000
:101A600000204880084848610846084908607047D7
:101A700074020020D004002019140008911A0008F4
:101A80004D454E5500000000900200205C020020F1
:101A9000012808D170490968896921B16E4909682E
:101AA00089696D4A1160022826D16B490968097B52
:101AB00021B101291CD002291CD11AE0664909680C
:101AC0004969654A1268B2F90220C2EBC20201EB11
:101AD000820161B16049096849695F4A1268B2F9D7
:101AE0000220C2EBC20201EB82015B4A116002E0FC
:101AF00001E000E000BF00BF04283DD1564909685D
:101B0000097B21B101291BD0022933D131E052498F
:101B10000968B1F9022050490968B1F90010491E5D
:101B20008A4208DA4C4909684988491C09B24A4A7C
:101B30001268518003E00021474A126851801AE080
:101B400045490968B1F9022043490968B1F9001013
:101B5000491E8A4208DA404909684988491C09B285
:101B60003D4A1268518003E000213B4A12685180CF
:101B700001E000E000BF00BF032837D13649096803
:101B8000097B21B1012918D002292DD12BE032493E
:101B90000968498841B1304909684988491E09B234
:101BA0002D4A1268518007E02B4909680988491EAF
:101BB00009B2294A1268518017E027490968498803
:101BC00041B1254909684988491E09B2224A12686B
:101BD000518007E0204909680988491E09B21E4A58
:101BE0001268518001E000E000BF33E0062826D1F2
:101BF00019490968097B21B101291CD002291CD18E
:101C00001AE0154909684969134A1268B2F90220B5
:101C1000C2EBC20201EB820161B10F490968496957
:101C20000D4A1268B2F90220C2EBC20201EB820136
:101C3000094A116002E001E000E000BF0AE0052867
:101C400008D105490968896921B103490968896989
:101C5000014A1160704700005C02002070B5044624
:101C600000251148066804F0010008B1012517E0BD
:101C700004F0020008B1022512E004F0040008B1EB
:101C800005250DE004F0080008B1062508E004F081
:101C9000100008B1032503E004F0200000B1042582
:101CA00028463169884770BD5C0200202DE9F0416B
:101CB000054605260021284603F0C4FD0FD2264A1A
:101CC00017795268521CDFF890C0F8B2CCF80420A3
:101CD0006246117A53692D22984785F000452846BF
:101CE00003F048FD074600F03BF8002E0DDD1A4AD0
:101CF00017795268521CDFF860C0F8B2CCF80420A3
:101D00006246117A53692E229847002420E0134935
:101D1000284603F0CBFD0546284603F047FD0A217F
:101D2000B0FBF1F201FB120000F130070A4A92F811
:101D300004C05268521CDFF820800CF0FF00C8F885
:101D400004204246117A53693A469847601CC4B24F
:101D5000B442DCDBBDE8F0815C02002000002041E1
:101D60002DE9FC410546002D0CDA234A167952680C
:101D7000521C214FF0B27A603A46117A53692D22F3
:101D800098476D42002403E000200DF80400641C15
:101D9000062CF9DB00240CE00A2095FBF0F100FB97
:101DA00011503030C0B20DF804000A2095FBF0F558
:101DB000641C0A2095FBF0F00028EDD10A2095FB69
:101DC000F0F100FB11503030C0B20DF804000FE00C
:101DD000094E37797668761CDFF81CC0F8B2CCF86B
:101DE00004601DF804206646317A73699847641EC2
:101DF000002CEDDABDE8FC815C02002010B5044641
:101E0000206800F023F8207905281DD2DFE800F0D3
:101E1000171208030D00A1680868FFF7A1FF13E07F
:101E2000A1680868FFF79CFF0EE0A1680868FFF74B
:101E30003DFF09E0A1680878FFF792FF04E0A16880
:101E40000878FFF78DFF00BF00BF10BD2DE9F041FE
:101E500004460CE014F8012B0D4D2E796D686D1CB5
:101E60000B4FF0B27D603D46297A6B699847207828
:101E70000028EFD1064A15795268521C044EE8B288
:101E800072603246117A536920229847BDE8F0818A
:101E90005C02002070B55D4805680146086980470E
:101EA00000205A4948608860B5F90000012802DA2C
:101EB000B5F9000000E00120C6B2B5F90200012822
:101EC00050DA6868FFF7C2FF01205049886028880F
:101ED000002846D0287B20B1012823D0022840D1F9
:101EE0003EE000241BE0002048494860C4EBC402E7
:101EF000696901EB82014868FFF7A8FFB5F90200A4
:101F0000A04205D10E204149486041A0FFF79EFF45
:101F10003E488068401C3D498860601CC4B2B442A1
:101F2000E1DB1EE0002418E0002038494860A96881
:101F300001EB0410FFF762FFB5F90200A04205D1E2
:101F40000E203249486032A0FFF780FF2F4880689A
:101F5000401C2E498860601CC4B2B442E4DB00E03F
:101F600000BF52E0288800284FD0287B20B10128EC
:101F700027D0022848D146E0A878401EC4B21BE012
:101F8000002022494860C4EBC402696901EB820168
:101F90004868FFF75BFFB5F90200A04205D10E20AB
:101FA0001A4948601AA0FFF751FF18488068401C82
:101FB00016498860601CC4B2B5F90200A042DFDA9D
:101FC00022E0A878401EC4B218E000200F49486003
:101FD000A96801EB0410FFF711FFB5F90200A04258
:101FE00005D10E200949486009A0FFF72FFF0748D7
:101FF0008068401C05498860601CC4B2B5F90200C5
:10200000A042E2DA00E000BF00BF70BD5C02002029
:102010003C3D000000BFFEE708B50121542000F060
:102020008FFF0120ADF8000028208DF803006946DD
:102030000A48FFF78FF81C20ADF8000048208DF803
:10204000030069460648FFF785F8C020ADF8000098
:1020500069460448FFF77EF808BD0000000801400B
:10206000001801400010014070B50546002601210E
:102070003248FFF743F9012805D131480078401C68
:102080002F49087002E000202D49087010212D48CA
:10209000FFF734F928B92A484078401C284948708D
:1020A00002E000202649487004212648FFF726F95F
:1020B00028B923488078401C2149887002E000201C
:1020C0001F49887008211F48FFF718F928B91C48D4
:1020D000C078401C1A49C87002E000201849C87036
:1020E00040211948FFF70AF928B915480079401C22
:1020F0001349087102E0002011490871802112483B
:10210000FFF7FCF828B90E484079401C0C4948718B
:1021100002E000200A49487100240BE00848005DF5
:10212000A84205DD0120A0403043C6B20448055551
:10213000601CC4B2062CF1DB304670BD00080140C3
:1021400000000020001801400010014008B50121E6
:102150004FF4C07000F0F4FEF020ADF80000102045
:102160008DF8030003208DF8020069460848FEF749
:10217000F1FF0720ADF8000010208DF803000320C8
:102180008DF8020069460348FEF7E4FF08BD000031
:1021900000200140001C014010B5FFF7D7FF2820A8
:1021A00000F07EF80C2000F07BF8062000F078F8B4
:1021B000012000F075F805A20021084600F028F87B
:1021C00007A20221002000F023F810BD2A57454C39
:1021D000434F4D4520544F205553452A00000000E1
:1021E0002A2A2A4E454E552A2A2A4147562A2A2A61
:1021F0000000000070B504460E460EB9E5B202E0DC
:1022000004F14000C5B245F0800000F049F870BD0F
:1022100070B505460E46144631462846FFF7EAFFDC
:1022200003E014F8010B00F065F820780028F8D1DD
:1022300070BD70B505460E46144631462846FFF778
:10224000D9FF204600F056F870BD000010B5FF2100
:102250001048FFF760F801210F48FFF758F80221F6
:102260000D48FFF756F800BF04210B48FFF751F85F
:10227000012002F033FA80210848FFF73FF844B20A
:1022800004210548FFF743F804F080000028EBD153
:1022900010BD000000200140001C0140000801406A
:1022A00010B50446FFF7D2FF01211048FFF72FF8C1
:1022B00002210E48FFF72BF821460D48FFF72BF8B7
:1022C00004210A48FFF725F804210848FFF71FF802
:1022D00021010748FFF71FF804210448FFF719F808
:1022E00004210248FFF713F810BD0000001C014054
:1022F0000020014010B50446FFF7A8FF0121104857
:10230000FFF707F802210E48FFF701F821460D48B4
:10231000FFF701F804210A48FEF7FBFF04210848F3
:10232000FEF7F5FF21010748FEF7F5FF04210448F9
:10233000FEF7EFFF04210248FEF7E9FF10BD0000A1
:10234000001C01400020014010B50120FFF7A8FF4C
:1023500010BD000008B501214FF4E27000F0F0FD5F
:102360006020ADF8000010208DF8030003208DF8E8
:10237000020069460948FEF7EDFE4FF40C60ADF827
:10238000000069460648FEF7E5FE4FF40070ADF820
:10239000000069460348FEF7DDFE08BD0018014055
:1023A000001C0140002001402DE9FE4F06460F466B
:1023B0000822474940F20160FEF71AFB4FF4FA7019
:1023C00002F0B2F976BB434800F06EFD804603F0A0
:1023D000D1F90446201E01DB014600E041420329F9
:1023E00000DC0025032C0CDD204603F0FFF98146BC
:1023F000394A4946394802F0EFF9804603F0BAF904
:10240000054614F1030F0EDA204603F0EFF981467A
:10241000334A4946334802F0DFF9804603F0AAF90F
:10242000054600E03D4630498868304903F00AFB24
:1024300002D2002D00DA00252B4988682C4903F0D0
:1024400001FA02D2002D00DD00252DB9082229490C
:1024500040F20160FEF7CCFA284603F0C7F9834644
:10246000254903F023FA8246204903F0C1F881464A
:10247000224903F01BFA804603F07CF900902320E8
:102480008DF80400FF208DF8050060208DF806000F
:1024900000208DF807009DF800008DF808009DF8D9
:1024A00001008DF809009DF802008DF80A009DF8E2
:1024B00003008DF80B00082201A940F20160FEF72D
:1024C00097FA4FF4487002F02FF9BDE8FE8F000034
:1024D0002600002020050020000030C10000C0C000
:1024E000000030410000C040880100200000C842C8
:1024F0000000C8C22E00002000007A4900002041E0
:1025000008B501214FF4887000F01AFD4FF42050F7
:10251000ADF8000004208DF8030003208DF80200C0
:1025200069460748FEF716FE3F20ADF80000002080
:102530008DF8030069460348FEF70CFE08BD000055
:10254000002001400010014010B50120144908602E
:10255000FFF7D6FFFEF73EFD642002F0BFF802222F
:1025600010490020FEF744FA08220F4940F20B60A0
:10257000FEF73EFA322002F0B1F802220B490020A9
:10258000FEF736FA0822084940F20160FEF730FAF9
:1025900000200749C1F894010A2002F09FF810BDFD
:1025A000940123421C0000201E0000201A0000207D
:1025B00000002342FEB504460822234940F20B6086
:1025C000FEF716FA4FF4FA7002F0AEF8204603F068
:1025D0000DF907461D4903F069F906461C4903F049
:1025E00007F8054603F0C6F800902CB908221949EF
:1025F00040F20B60FEF7FCF923208DF80400FF2069
:102600008DF8050060208DF8060000208DF8070089
:102610009DF800008DF808009DF801008DF8090074
:102620009DF802008DF80A009DF803008DF80B005C
:10263000082201A940F20B60FEF7DAF94FF4FA70B4
:1026400002F072F8FEBD00002600002000401C4988
:102650000000C8422E000020F0B58BB007460C46A3
:1026600015461E460121084600F03AFC3846FEF7A2
:1026700035FA0094019510200290039600200490F2
:102680008020059000200690079008904FF480501D
:10269000099000200A9069463846FEF7E4FA00F0F7
:1026A000A0FB012202213846FEF7D4FA0BB0F0BDA0
:1026B000F0B58BB007460C4615461E46012108466C
:1026C00000F00EFC3846FEF709FA00940195002050
:1026D00002900396049080200590400006908000B0
:1026E0000790002008904FF40050099000200A90B5
:1026F00069463846FEF7B7FA00F073FB0122022163
:102700003846FEF7A7FA0BB0F0BD70B504460D468B
:1027100000212046FEF7D6F929462046FEF7C1FAE9
:1027200001212046FEF7CEF970BD00BFFEE7000094
:1027300000B58FB0FE488069019002F0A0FCFD4A10
:10274000FD4BCDE9020102F0D7FA0022FB4BCDE9A7
:10275000040102F0D1FA02460B46CDE90601F84821
:10276000F84902F0C9FACDE90A01F748006802F019
:10277000A5FEF64AF64BCDE9060102F0ABFCCDE929
:102780000801DDE90A2302F0B7FACDE90C01E848B7
:102790008068F049086008460168002003F052F89C
:1027A00001D8012000E000205A287CDAE6480168C0
:1027B000E848006803F07AF8E749049002F018FF4F
:1027C000059002F07BFECDE9060101F017FFCDE98F
:1027D0000801DDE90C2302F07DFCCDE90A0102F0DD
:1027E0009DF9DE490860D8480168DA48006803F0BE
:1027F0005DF8D949029002F0FBFE039002F05EFE04
:10280000CDE9040102F030F8CDE90801DDE90C0161
:1028100081F00041CDE90601DDE9082302F05AFC10
:10282000CDE90A0102F07AF9CD490860C94801688A
:10283000CC48006803F038F9CB490860C248016809
:10284000C948006803F032F8C349049002F0D0FE92
:10285000059002F033FECDE9060101F0CFFECDE98F
:102860000801DDE90C2302F035FCCDE90A0102F094
:1028700055F9BE490860B4480168BB48006803F0D8
:1028800015F8B549049002F0B3FE059002F016FE6B
:10289000CDE9060101F0E8FFCDE90801DDE90C23EF
:1028A00002F018FC00E006E0CDE90A0102F036F97A
:1028B000AF490860D7E1A7480168AE4802F0C2FFFF
:1028C00001D8012000E0002087287CDA9E480168BA
:1028D000A048006802F0EAFF9F49049002F088FED9
:1028E000059002F0EBFDCDE9060101F087FECDE990
:1028F0000801DDE90C2302F0EDFBCDE90A0102F04D
:102900000DF996490860904801689248006802F005
:10291000CDFF9149029002F06BFE039002F0CEFDD4
:10292000CDE9040101F0A0FFCDE90801DDE90C01CA
:1029300081F00041CDE90601DDE9082302F0CAFB80
:10294000CDE90A0102F0EAF885490860814801688A
:102950008448006803F0A8F8834908607A48016851
:102960008148006802F0A2FF7B49049002F040FE1B
:10297000059002F0A3FDCDE9060101F03FFECDE98F
:102980000801DDE90C2302F0A5FBCDE90A0102F004
:10299000C5F8764908606C4801687348006802F021
:1029A00085FF6D49049002F023FE059002F086FD3C
:1029B000CDE9060101F058FFCDE90801DDE90C235E
:1029C00002F088FB00E006E0CDE90A0102F0A6F87B
:1029D0006749086047E15F480168674802F032FFD5
:1029E00001D8012000E0002010F15A0F7EDA56488D
:1029F00001685848006802F059FF5749049002F0F6
:102A0000F7FD059002F05AFDCDE9060101F0F6FD53
:102A1000CDE90801DDE90C2302F05CFBCDE90A01F8
:102A200002F07CF84D490860474801684948006851
:102A300002F03CFF4849029002F0DAFD039002F0F8
:102A40003DFDCDE9040101F00FFFCDE90801DDE90D
:102A50000C0181F00041CDE90601DDE9082302F017
:102A600039FBCDE90A0102F059F83D4908603948BF
:102A700001683C48006803F017F83B490860324899
:102A800001683948006802F011FF3349049002F0F0
:102A9000AFFD059002F012FDCDE9060101F0AEFD9B
:102AA000CDE90801DDE90C2302F014FBCDE90A01B0
:102AB00002F034F82D490860234801682A4800686C
:102AC00002F0F4FE2449049002F092FD059002F019
:102AD000F5FCCDE9060101F0C7FECDE90801DDE90D
:102AE0000C2302F0F7FACDE90A0100E004E002F05D
:102AF00015F81F490860B6E0164801681F4802F043
:102B0000A1FE01D8012000E000200028F3DA0E48E1
:102B100001681048006802F0C9FE0F49049002F0F5
:102B200067FD059002F0CAFCCDE9060128E000002F
:102B3000880100207B14AE47E17A943F00409F401B
:102B4000CDCCCCCCCC0C5540640000200681954304
:102B50008B6CC73F3C000020000034434000002045
:102B60004400002038000020480000204C000020D5
:102B7000500000200000B442000007C30000B4C2AF
:102B800001F03CFDCDE90801DDE90C2302F0A2FAD9
:102B9000CDE90A0101F0C2FF804908608048016860
:102BA0008048006802F082FE7F49029002F020FD1A
:102BB000039002F083FCCDE9040101F055FECDE95C
:102BC0000801DDE90C0181F00041CDE90601DDE9F4
:102BD000082302F07FFACDE90A0101F09FFF734953
:102BE0000860704801687248006802F05DFF714932
:102BF00008606B4801686F48006802F057FE6A4938
:102C0000049002F0F5FC059002F058FCCDE90601B5
:102C100001F0F4FCCDE90801DDE90C2302F05AFAD9
:102C2000CDE90A0101F07AFF634908605C48016858
:102C30006048006802F03AFE5B49049002F0D8FC5C
:102C4000059002F03BFCCDE9060101F00DFECDE957
:102C50000801DDE90C2302F03DFACDE90A0101F09B
:102C60005DFF564908604D480068554908624F4865
:102C70000068C861534801684C48006802F0B8FC1D
:102C800051490860084600684D4908634F4801688B
:102C90004D48006802F00AFE4349099002F006FE22
:102CA0000A903F4801680A9802F0A2FC0B90404845
:102CB00001680B9802F02EFC3D4908600022134683
:102CC000DDE90C0102F070F918D0404801683A487B
:102CD000006802F0EBFD3E4908603C480168374857
:102CE000006802F0E3FD3B49086038480168364857
:102CF000006802F0DBFD3849086006E00020344936
:102D0000086034490860344908602D48406A0B90D7
:102D10002F4801680B9802F0FDFB294948620846DC
:102D2000806A0B902B4801680B9802F0F3FB244952
:102D300088621D492848006802F0B8FD0A901848CA
:102D400001680A9802F054FC0B901D48C06A0146C5
:102D50000A900B9802F0DEFB1949C8620846C06A67
:102D60001E490B9002F06EFE07D21548C06A1B493F
:102D70000B9002F099FE1249C8621148C06A002106
:102D80000B9002F05FFD07D20D48C06A13490B900B
:102D900002F0C0FB0A49C8620FB000BD400000202D
:102DA000640000203C000020000034434400002068
:102DB00038000020480000204C0000205000002077
:102DC000880100206C0000206000002068000020C6
:102DD00054000020580000205C0000200000B44394
:102DE000704708B54FF4C06000F054F80B208DF820
:102DF000000000208DF801008DF8020001208DF800
:102E00000300684600F00EF80E208DF80000012047
:102E10008DF801008DF802008DF80300684600F07F
:102E200001F808BD70B5002100230F22C47804B357
:102E3000154C246804F4E064C4F5E064210AC1F18F
:102E40000403CA40447804FA03F18478144021430F
:102E500009010E4C0678A155047804F01F050124E1
:102E6000AC4005786D11AD0005F1E025C5F80041D5
:102E700009E0047804F01F050124AC40044D0678F5
:102E8000761145F8264070BD0CED00E000E400E04E
:102E900080E100E002490143024A116070470000EE
:102EA0000000FA050CED00E070B50446D4E903011A
:102EB00002F0FAFD60616569A06920626069A06145
:102EC000284670BD7047000001460020034A506844
:102ED00020F440400843506070470000001002405A
:102EE00029B1064A52690243044B5A6104E0034A7D
:102EF00052698243014B5A61704700000010024042
:102F000029B1064AD2690243044BDA6104E0034A5C
:102F1000D2698243014BDA61704700000010024021
:102F200029B1064A12690243044B1A6104E0034ABC
:102F300012698243014B1A61704700000010024081
:102F400029B1064A92690243044B9A6104E0034A9C
:102F500092698243014B9A61704700000010024061
:102F600029B1064AD2680243044BDA6004E0034AFE
:102F7000D2688243014BDA607047000000100240C3
:102F800030B500210022002400232D4D6D6805F08E
:102F90000C0121B1042905D0082923D105E0294DD0
:102FA000056022E0274D05601FE0254D6D6805F4A2
:102FB0007012234D6D6805F48034022505EB9242B2
:102FC0001CB9214D554305600BE01D4D6D6805F49E
:102FD00000351DB11C4D5543056002E0194D5543A8
:102FE000056002E0174D056000BF00BF144D6D681D
:102FF00005F0F0010909154D6B5C0568DD40456081
:103000000F4D6D6805F4E061090A104D6B5C456871
:10301000DD4085600A4D6D6805F46051C90A0B4DAD
:103020006B5C4568DD40C560054D6D6805F4404149
:10303000890B074D6B5CC568B5FBF3F5056130BDC9
:103040000010024000127A0000093D00AC00002090
:10305000BC00002010B5CD202B490870EB20487033
:10306000D72088707320C870002425E0274810F806
:10307000241004EB8400001D234A1154234800EB64
:103080008400417804EB8400401D11541F4800EB7C
:103090008400817804EB8400801D11541B4800EBF0
:1030A0008400C17804EB8400C01D1154202104EB7E
:1030B000840008301154641C172CD7DB01228021B6
:1030C000134800F08DFE77211248FFF71EFB0F48D2
:1030D00081691148114A126840F822100F480068AF
:1030E000632803DA0D480068401C00E000200B490B
:1030F00008600648806D401C04498865FFF718FB8E
:1031000000200249886110BDE401002088010020F0
:103110000038014044000240D40600207000002026
:1031200010B504460749204602F08CFC00D2054C3D
:103130000549204602F086FB00D2034C0348C460D8
:10314000002010BD0000B4420000B4C220050020E1
:10315000704710B500F002F810BD00000CB500205B
:10316000019000903348006840F480303149086095
:1031700000BF3048006800F4003000900198401C07
:103180000190009818B90198B0F5A06FF1D12948C5
:10319000006800F4003010B10120009001E0002030
:1031A00000900098012843D12348006840F01000A7
:1031B000214908600846006820F0030008600846BE
:1031C000006840F0020008601A48406819494860E9
:1031D0000846406848600846406840F4806048609F
:1031E0000846406820F47C1048600846406840F477
:1031F000E81048600846006840F08070086000BF32
:103200000C48006800F000700028F9D009484068B8
:1032100020F00300074948600846406840F002007B
:10322000486000BF0348406800F00C000828F9D14E
:103230000CBD00000010024000200240042808D10C
:103240004FF0E021096941F004014FF0E0221161E3
:1032500007E04FF0E021096921F004014FF0E0227E
:10326000116170477047000010B51348006840F0C6
:1032700001001149086008464068104908400E499D
:103280004860084600680E4908400B490860084637
:10329000006820F4802008600846406820F4FE00A2
:1032A00048604FF41F008860FFF753FF4FF0006045
:1032B0000449086010BD0000001002400000FFF843
:1032C000FFFFF6FE08ED00E0F0B50C4615460022C3
:1032D0000021068C4FF6FE773E400684028B018C5F
:1032E0004FF60C7632407E1C06EA03162E4332431C
:1032F000104EB0420ED0104EB0420BD0B0F1804F05
:1033000008D00E4EB04205D00D4EB04202D00D4E48
:10331000B04206D14FF6FD76314044F0010631430C
:1033200005E04FF6F576314044F001063143028363
:103330000184F0BD002C0140003401400004004035
:1033400000080040000C0040F0B50C461546002275
:1033500000210026078C4FF6EF7C07EA0C07078454
:10336000028B018C4FF6FF7707EA041640F6FF4701
:103370003A404FF6FF7707EA03373A434FF6FF77B5
:1033800007EA05273A43114FB8420ED0104FB84212
:103390000BD0B0F1804F08D00E4FB84205D00E4F81
:1033A000B84202D00D4FB84206D14FF6DF77394010
:1033B00046F01007394305E04FF65F77394044F097
:1033C0001007394302830184F0BD0000002C014046
:1033D000003401400004004000080040000C0040A0
:1033E000F0B50C461546002200210026078C4FF64A
:1033F000FF6C07EA0C070784828B018C4FF6FF777E
:1034000007EA04264FF60C773A404FF6FF7707EAB3
:1034100003172F433A43114FB8420ED0104FB84212
:103420000BD0B0F1804F08D00E4FB84205D00E4FF0
:10343000B84202D00D4FB84206D14FF6FF5739407F
:1034400046F48077394305E04FF2FF57394044F4A2
:103450008077394382830184F0BD0000002C014055
:10346000003401400004004000080040000C00400F
:10347000F0B50C461546002200210026078C4EF6BA
:10348000FF7C07EA0C070784828B018C4FF6FF77DD
:1034900007EA043640F6FF473A404FF6FF7707EA5F
:1034A00005273A434FF6FF7707EA03373A43114FB0
:1034B000B8420ED0104FB8420BD0B0F1804F08D0B8
:1034C0000E4FB84205D00E4FB84202D00D4FB84251
:1034D00006D14DF6FF77394046F48057394305E071
:1034E00047F6FF57394044F48057394382830184BB
:1034F000F0BD0000002C01400034014000040040F9
:1035000000080040000C004010B50121880700F0C1
:1035100079FA18B10121880700F04DF910BD0000BB
:1035200010B501212B4800F06DFA002851D001217F
:10353000284800F040F928480488002026490880DF
:103540002648816947F23050844202DDA4EB4000F6
:1035500000E020460844214988612148008840F065
:1035600001001F4908801F48007800F0030038B9A7
:10357000FFF770FD1A48008840F0020018490880E3
:10358000184800680521B0FBF1F201FB120028B9D0
:103590001348008840F00400114908801148006871
:1035A0006421B0FBF1F201FB120028B90C4800883D
:1035B00040F008000A4908800A480068642805D2DB
:1035C00008480068401C0749086002E001200549DE
:1035D000086010BD0004004024080040880100205D
:1035E00086000020740000207FB505460C460121AE
:1035F0000220FFF785FCADF80850ADF8044000202C
:10360000ADF80A00ADF8060001A90E4800F0ACFACA
:10361000012241210B4800F066FA1D208DF80000C0
:1036200000208DF8010003208DF8020001208DF8A4
:1036300003006846FFF7F6FB0121024800F0BEF8E0
:103640007FBD00000004004000B587B001210420C8
:10365000FFF756FC01210846FFF772FC0121080321
:10366000FDF704FE01212020FFF76AFC4FF44050D3
:10367000ADF8180048208DF81B0003208DF81A00C3
:1036800006A91948FDF766FD184800F0A3F84EF6A4
:103690006020ADF810000020ADF80C00ADF812006D
:1036A000ADF80E0003A9114800F05EFA00231A4697
:1036B00001210E4800F082F9684600F00BFA06205E
:1036C000ADF808006946094800F0AEF90020074946
:1036D000243108800121054800F06AF801210348DF
:1036E00000F06CF807B000BD001401400008004075
:1036F00010B52C48007800F0800000284CD1012142
:10370000294800F07FF9D0B12648007800F0400049
:10371000A8B12448007800F03F003F280AD1214892
:10372000007840F080001F4908704FF6FF701F4975
:10373000088004E01B480078401C1A4908700221E8
:10374000194800F05FF938B31648007800F04000DF
:1037500078B11448007840F080001249087012488F
:1037600000F04DF91149088000210F4800F0C4F91C
:1037700012E000200B4908700C49088000210A481B
:1037800000F0C3F90748007840F040000549087090
:103790000221054800F0B0F90321034800F00BF8BE
:1037A00010BD000078000020000C00407A000020CE
:1037B000CA4302827047CA430282704721B102881D
:1037C00042F00102028004E002884FF6FE731A40C4
:1037D0000280704710B504466848844208D1012130
:1037E000C014FFF7BDFB0021E014FFF7B9FBC4E0F4
:1037F000B4F1804F08D101210846FFF791FB002169
:103800000120FFF78DFBB8E05D48844208D101211B
:103810000220FFF785FB00210220FFF781FBACE0CF
:103820005848844208D101210420FFF779FB002188
:103830000420FFF775FBA0E05348844208D1012122
:103840000820FFF76DFB00210820FFF769FB94E0DB
:103850004E48844208D101211020FFF761FB00216E
:103860001020FFF75DFB88E04948844208D1012120
:103870002020FFF755FB00212020FFF751FB7CE0C3
:103880004448844208D101214014FFF769FB00211C
:103890006014FFF765FB70E03F48844209D10121C5
:1038A000C804FFF75DFB00214FF40020FFF758FB31
:1038B00063E03A48844209D101210805FFF750FB33
:1038C00000214FF48010FFF74BFB56E03448844250
:1038D00009D101214805FFF743FB00214FF40010F7
:1038E000FFF73EFB49E02F48844208D101214020E8
:1038F000FFF716FB00214020FFF712FB3DE02A48AE
:10390000844208D101218020FFF70AFB002180209A
:10391000FFF706FB31E02548844208D101218015DC
:10392000FFF7FEFA0021A015FFF7FAFA25E020487C
:10393000844209D101210804FFF712FB00214FF452
:103940008030FFF70DFB18E01A48844209D10121AD
:103950004804FFF705FB00214FF40030FFF700FBA0
:103960000BE01548844208D101218804FFF7F8FADA
:1039700000214FF48020FFF7F3FA10BD002C014026
:103980000004004000080040000C0040001000400F
:103990000014004000340140004C01400050014040
:1039A0000054014000180040001C0040002000406E
:1039B000004001400044014000480140F0B50C4681
:1039C00015461E460021002200230189028B038C2C
:1039D0004FF6F877394021434FF6FC473A4040F222
:1039E00001173A434FF6DD773B404FF6FF7707EA82
:1039F00006172F433B43018102830384F0BD014638
:103A0000888E704730B50246002000230024158AB6
:103A100005EA0103958905EA010413B10CB10120FF
:103A200000E0002030BD000070B505460C4624487B
:103A300085420ED0234885420BD0B5F1804F08D087
:103A40002148854205D02148854202D02048854240
:103A500000D100E000BF208850B92389A288618886
:103A60002846FFF731FCE188284600F050F825E0B1
:103A7000208804280AD12389A28861882846FFF774
:103A800063FCE188284600F04BF817E020880828FE
:103A90000AD12389A28861882846FFF7A1FCE18822
:103AA000284600F04AF809E02389A2886188284660
:103AB000FFF7DEFCE188284600F048F870BD000002
:103AC000002C014000340140000400400008004088
:103AD000000C0040002101804180012181800021F3
:103AE000C180018170471AB183890B43838102E051
:103AF00083898B43838170470A460021018C4FF6EE
:103B0000FD73194011430184704781847047028B13
:103B10004FF6F3731A400283028B0A430283704705
:103B2000028B4FF2FF331A400283028B4FF6FF7372
:103B300003EA01231A4302837047828B4FF6F37323
:103B40001A408283828B0A4382837047828B4FF2B2
:103B5000FF331A408283828B4FF6FF7303EA0123FF
:103B60001A43828370470000002202881D4B98424E
:103B70000ED01D4B98420BD0B0F1804F08D01B4B9C
:103B8000984205D01A4B984202D01A4B984204D161
:103B90004FF68F731A404B881A43174B984207D041
:103BA000164B984204D04FF6FF431A40CB881A4375
:103BB00002808B8883850B8803850A4B98420BD043
:103BC000094B984208D00E4B984205D00D4B9842B5
:103BD00002D00D4B984201D10B7A038601238382D8
:103BE00070470000002C01400034014000040040F8
:103BF00000080040000C004000100040001400408D
:103C000000400140004401400048014010B540F22E
:103C100025512F4800F0EDF8002857D02C48001D02
:103C20000088C4B22B48007805284AD2DFE800F0AB
:103C3000030F19233400CD2C05D10120254908702C
:103C40002549088002E00020224908703DE0EB2C65
:103C500003D102201F49087002E000201D490870AE
:103C600033E0D72C03D103201A49087002E000206A
:103C70001849087029E01948047000201849087094
:103C8000084601780078401C154A107015484454C5
:103C900004201049087018E0114801780078401C91
:103CA0000F4A10700F484454104600780B490978A9
:103CB000884205DD00200749087002200649088077
:103CC00003E000200349087000BF00BF10BD0000E2
:103CD0000038014090000020840000209100002066
:103CE00092000020440500207047000010B540F20B
:103CF00025512F4800F07DF8002857D02C48001D92
:103D00000088C4B22B48007805284AD2DFE800F0CA
:103D1000030F19233400CD2C05D10120254908704B
:103D20002549088002E00020224908703DE0EB2C84
:103D300003D102201F49087002E000201D490870CD
:103D400033E0D72C03D103201A49087002E0002089
:103D50001849087029E019480470002018490870B3
:103D6000084601780078401C154A107015484454E4
:103D700004201049087018E0114801780078401CB0
:103D80000F4A10700F484454104600780B490978C8
:103D9000884205DD00200749087002200649088096
:103DA00003E000200349087000BF00BF10BD000001
:103DB000004800409300002088000020940000206C
:103DC000950000200C06002021B1828942F40052A7
:103DD000828104E082894DF6FF731A408281704728
:103DE0001AB1838A0B43838202E0838A8B438382E6
:103DF000704770B50246002400230025002040F6DD
:103E00006A16B14200D100BFC1F3421501F01F0391
:103E1000012606FA03F3012D02D19689334006E00C
:103E2000022D02D1168A334001E0968A33400C12EB
:103E3000012606FA04F41688344013B10CB10120AF
:103E400000E0002070BDF0B50346002400260025E8
:103E5000002040F66A17B94200D100BF1846C1F3EE
:103E6000421401F01F06012707FA06F5012C01D1C3
:103E70000C3004E0022C01D1103000E014301AB1F3
:103E800007682F43076002E00768AF430760F0BD93
:103E90002DE9F04786B005460E460024A24600BF35
:103EA000A1460027B08900B100BF2F462C8A4CF6EE
:103EB000FF700440F08804432C82AC894EF6F31066
:103EC0000440B08831890843718908430443AC81B8
:103ED000AC8A4FF6FF400440B0890443AC8201A88D
:103EE000FFF74EF81F48874202D1DDF810A001E02D
:103EF000DDF80CA0A88900F4004040B10AEBCA002C
:103F000000EB0A1031684900B0FBF1F807E00AEB5A
:103F1000CA0000EB0A1031688900B0FBF1F8642098
:103F2000B8FBF0F004012009642101FB1089A88985
:103F300000F4004040B1322000EBC900B0FBF1F0CA
:103F400000F00700044308E0322000EB0910642170
:103F5000B0FBF1F000F00F0004432C8106B0BDE887
:103F6000F08700000038014010B50B46002109E041
:103F700000BF048804F04004002CFAD05C5C84800C
:103F80004C1CE1B29142F3DB10BD00BFFEE74900DB
:103F900050EAC12018BF04204A0D18BF40F00100AC
:103FA00040F2FF72B2EB515F08BF40F002000128FF
:103FB00008BF0520704700002DE9F74F144694B064
:103FC0000021C4E902111599079121F00045C94962
:103FD0008D4206DC1599C4E9000117B00020BDE848
:103FE000F08FC549DFF814A3A9423CDD0799C44E00
:103FF0000029C44FC44A1599534619DD01F074F9DC
:10400000554506D0C14AC24B01F06EF9C4E9000122
:104010000AE04FF0D352BE4B01F066F932463B4600
:1040200001F062F9C4E9000117B00120BDE8F08F8A
:1040300000F0A6FD554506D0B44AB54B00F0A0FDF2
:10404000C4E900010AE04FF0D352B14B00F098FDF3
:1040500032463B4600F094FDC4E9000117B04FF032
:10406000FF30BDE8F08FAB49A942159978DB21F00C
:10407000004183468846A84AA84B01F02BF800224D
:10408000A74B00F07DFD00F0CBFF099000F0F7FF9B
:1040900006460F469C4A534601F01CF843465A46D2
:1040A00001F016F980468A46984A994B30463946BF
:1040B00001F010F82A0D01250B924246534601F0FB
:1040C00007F9032DC4E9000139D00B98C1F30A5157
:1040D000401A05EB45111139814230DA9148C34647
:1040E000784400EB0510CDF80CA00C90D0E900232B
:1040F0003046394600F0EEFF02460B46049106902A
:104100005846039901F0F0F880468A4602460B466D
:104110005846039901F0E8F8049B069A01F0E4F888
:1041200083460C9803913946D0E90223304600F0CB
:10413000D1FF5A46039B01F0D7F86D1CBDE70798E5
:104140000028A2BF099817B0BDE8F08F616881F020
:1041500000416160099817B04042BDE8F08FFFE769
:1041600084461598C1F31301C0F30A50A0F2F5304C
:104170004FEA601800F01F06C6F1200013900020DF
:104180000690079041F4801E05206D4676B1664A80
:1041900008EB00017A4452F8213002EB8101B34070
:1041A0004A68139922FA01F1194305E05F4908EBC7
:1041B0000002794451F82210A1FB0E27A1FB0C1339
:1041C0001A449A4234BF0123002303EB070A05EB8C
:1041D0008003D3E901B70F448F4234BF012100218E
:1041E00093448B4411B1934502D903E0934501D226
:1041F000012100E00021C3E901B7514445F8201036
:10420000011EA0F10100C1DC0298059F00F10050E1
:10421000800F12900298DDE90356800000F02FFF16
:10422000834628460D9100F041FF6FF01D0201F01A
:10423000E2FCCDE90E01304600F038FF6FF03D02A0
:1042400001F0D9FC80468A46384600F02FFF6FF017
:104250005D0201F0D0FC074642465346119100F042
:104260008FFCDDE90E2300F08BFC5A460D9B00F01D
:1042700087FC00250E465A4628460D9B01F034F86F
:10428000DDE90E2301F030F84246534601F02CF8E8
:104290003A46119B01F01CF8DFF898A0244A5346D7
:1042A00000F018FF07468846234A244B314628462B
:1042B00000F010FF3A46434600F062FC074688468D
:1042C0004FF0A84253463146284600F003FF3A46D5
:1042D000434600F055FC159A12F0004F04D0129A94
:1042E00081F0004152421292C4E90001129817B0C5
:1042F000BDE8F08FFB21E93F7CD90240FB21F93F6B
:104300007370032E8A19A33B000040543163621A74
:1043100061B4D03DFB21394183C8C96D305FE43FB2
:104320000000E03FD41B0000501B0000321B0000C7
:10433000182D4454FB21F93D3326A611460B113CA0
:104340002DE9FF4D21F0004807460C46B8F1795F92
:1043500008DA00F065FE002801BF0020324904B0F1
:10436000BDE8F08D3A4623461046194600F0B2FEED
:10437000054602462D480E460B460621784400F0BD
:104380005DF82A46334600F0A5FEDDE902238246A9
:104390008B463846214600F09DFE04460F465246A5
:1043A0005B462846314600F095FE22463B4600F02B
:1043B0009BFF07468A464FF0FF322846314601F000
:1043C0001AFC1B4A90450ADA3A46534600F08CFF25
:1043D00004B00022BDE8F04D134B00F079BF154A40
:1043E0004245A8BFA8F500154FF00004B8BF124D14
:1043F00022462B4600F078FF0646884622462B468A
:104400000020094900F070FF04460D463A46534625
:104410003046414600F068FF04B022462B46BDE816
:10442000F04D00F055BF00000000F03F08190000FB
:104430003333D33F0000E93F0000D23F2DE9F04184
:104440004F1E00EBC7010446D1E9000115461E4688
:1044500037F006020DD02A46334600F03BFE7F1EA1
:1044600004EBC703D3E9002300F08AFB37F0060210
:10447000F1D1022F25D0042F13D0062F18BFBDE88D
:10448000F0812A46334600F025FED4E90A2300F0E5
:1044900077FB2A46334600F01DFED4E9082300F0DE
:1044A0006FFB2A46334600F015FED4E9062300F0E0
:1044B00067FB2A46334600F00DFED4E9042300F0E2
:1044C0005FFB2A46334600F005FED4E9022300F0E4
:1044D00057FB2A46334600F0FDFDD4E90023BDE832
:1044E000F04100F04DBB00002DE9FF4D054621F0E5
:1044F000004084B00C46B0F1795F0BDA2846FFF734
:1045000046FD042808BF00F06FF8284608B0214691
:10451000BDE8F08D2A460B46104600F0DBFD06464E
:104520000F462A46234600F0D5FD804626488A4697
:1045300032463B4605217844FFF780FF83461098BA
:10454000029160B3214A224B4046514600F0C2FD21
:10455000CDE900015A4640465146029B00F0BAFDA3
:1045600082468846DDE906014FF0FF3201F043FB49
:104570005246434600F0B8FE32463B4600F0AAFDE4
:10458000DDE9062300F0B0FEDDE9002300F0ACFE1B
:1045900008B02A462346BDE8F04D00F099BE0B4610
:1045A0005A463046394600F095FD084A084B00F05F
:1045B000E7FA4246534600F08DFD08B02A462346EE
:1045C000BDE8F04D00F0DCBA4618000049555555DD
:1045D0005555C5BF012201F00EBB002213461046FF
:1045E000114600F089BB0000024A0020110701F0CB
:1045F00002BB000001FDFFFF00BF704700B5244B68
:1046000021F0004287B09A42DCBF0022134629DD28
:10461000204B9A4208D140B94FF00100FBF700FE51
:10462000FFF7DBFF07B000BD03DBFFF7D3FF07B0E9
:1046300000BD02AAFFF7C0FC10F0030104BF0DF19A
:10464000080C9CE80F000DD0012001290ED0022992
:1046500014D00DF1080C00909CE80F00FFF744FF08
:1046600007B000BDFFF76CFE07B000BD0DF1080CF0
:1046700000909CE80F00FFF737FF05E00DF1080CF4
:104680009CE80F00FFF75CFE07B081F0004100BD21
:10469000FB21E93F0000F07F10B56FF00400FEF74A
:1046A000CDFD0A4800680A49B0FBF1F009490870DD
:1046B0000846007800EB4001C1EBC0104FF6FF71D7
:1046C00001EAC0000449088010BD000098000020E5
:1046D00000127A0080000020820000200146114A6A
:1046E00012884A434FF0E0235A6100229A611A4629
:1046F000126942F001021A6100BF4FF0E022106916
:1047000000F001021AB100F48032002AF5D04FF017
:10471000E022126922F001024FF0E0231A61002228
:104720009A617047820000200146114A12784A437C
:104730004FF0E0235A6100229A611A46126942F052
:1047400001021A6100BF4FF0E022106900F001027F
:104750001AB100F48032002AF5D04FF0E02212693D
:1047600022F001024FF0E0231A6100229A617047A3
:104770008000002008B5FFF78FFF4FF4A060FEF720
:1047800089FB4FF4E13000F065F94FF4E13000F0BF
:10479000BBF84FF4E13000F009F940F2F31140F2B8
:1047A000CF20FEF721FF00200423082207210090DC
:1047B000FBF7D2FFFDF7F0FCFDF7CCFDFDF72CFC7D
:1047C000FCF744FBFBF75AFEFDF7BEFEFCF796FE36
:1047D00001E0FCF769FAFCE770B506460D461446A1
:1047E0002946304601F02EF904D22146284601F030
:1047F00029F909D92946204601F024F906D229468B
:10480000304601F01FF801D8284670BD21463046D9
:1048100001F018F904D22946204601F013F909D90C
:104820002146284601F00EF906D22146304601F015
:1048300009F801D82046E8E72146304601F002F8A1
:1048400004D22946304601F0FDF809D32946304606
:1048500000F0F8FF06D22146304601F0F3F801D807
:104860003046D2E70020D0E700B5254B21F00042CA
:1048700087B09A4203DC0022134600922BE0214BC2
:104880009A4208D140B94FF00100FBF7C9FCFFF78D
:10489000A4FE07B000BD03DBFFF79CFE07B000BD20
:1048A00002AAFFF789FB10F003014FF001000DD0C1
:1048B000012914D002291AD00DF1080C9CE80F0030
:1048C000FFF73EFD07B081F0004100BD0DF1080C7F
:1048D00000909CE80F00FFF707FE07B000BD0DF148
:1048E000080C9CE80F00FFF72BFD07B000BD0DF191
:1048F000080C00909CE80F00FFF7F6FDE2E70000CF
:10490000FB21E93F0000F07F10B586B0044601218D
:104910004804FEF7F5FA01210420FEF711FB0420FC
:10492000ADF8140003208DF8160018208DF817003C
:1049300005A91C48FCF70EFC0820ADF81400042063
:104940008DF8170005A91748FCF704FC26208DF800
:10495000000003208DF801008DF8020001208DF881
:1049600003006846FEF75EFA01940020ADF80800E7
:10497000ADF80A00ADF80C00ADF810000C20ADF851
:104980000E0001A90848FFF783FA012240F22551E1
:104990000548FFF758FA01210348FFF715FA06B05A
:1049A00010BD0000000801400044004010B586B072
:1049B000044601218804FEF7A3FA01210820FEF72E
:1049C000BFFA4FF48060ADF8140003208DF8160094
:1049D00018208DF8170005A91C48FCF7BBFB4FF405
:1049E0000060ADF8140004208DF8170005A91748E1
:1049F000FCF7B0FB27208DF8000003208DF80100A4
:104A000002208DF8020001208DF803006846FEF7B1
:104A100009FA01940020ADF80800ADF80A00ADF8DD
:104A20000C00ADF810000C20ADF80E0001A90848EC
:104A3000FFF72EFA012240F225510548FFF703FA4D
:104A400001210348FFF7C0F906B010BD000C01407A
:104A50000048004010B586B0044601210820FEF74A
:104A60006FFA01210846FEF76BFA01210420FCF7DA
:104A7000FDFB01218803FEF763FA4020ADF8140026
:104A800003208DF8160018208DF8170005A91F487F
:104A9000FCF760FB8020ADF8140004208DF81700AF
:104AA00005A91A48FCF756FB25208DF800000320C5
:104AB0008DF801008DF8020001208DF80300684692
:104AC000FEF7B0F901940020ADF80800ADF80A0037
:104AD000ADF80C00ADF810000C20ADF80E0001A9E7
:104AE0000B48FFF7D5F9012240F225510848FFF79E
:104AF000AAF901210648FFF767F97723054A044917
:104B0000091D0548FDF7A8FD06B010BD000C0140C9
:104B100000380140E40100204400024021F000423E
:104B2000A2F16052B2F5801F01F0004328BFD2F11C
:104B30007F6C0BD95FEA001C43EAC20242EB507063
:104B400018BF704728BF20F001007047B2F5801FE2
:104B5000BCBF184670474FEA410C1CF5001F02D23B
:104B6000084600F06ABF70B500F05EFB00000089E7
:104B7000FFF7F6BF4FF00040A0F58000704700003F
:104B800010B591EA030F48BF83F0004300F1B483EE
:104B9000841A71EB030C05D2121943EB0C03001BB2
:104BA00061EB0C01DFF824E14FEA1154A4EB135C34
:104BB0001EEA430F18BF9EEA445F73D023EA0E0338
:104BC000DCF1200E21EA045143F4801332D322FA9F
:104BD0000CFE10EB0E0023FA0CFE41EB0E01CCF1A3
:104BE000200E03FA0EFE10EB0E0051F10001B1F59C
:104BF000801FCCF1200E32D201EB045112FA0EF2DA
:104C0000BDE8104058BF7047401C38BF5FEA420201
:104C100018BF7047002814BF20F0010041F10001C7
:104C20004FEA410313F5001F38BF7047A1F1C0419F
:104C300000F048BB012A43EB0302ACF1200CDCF18D
:104C40001F0E32BF4FF0000E23FA0CF310EB0300DF
:104C500041EB0451B4EB115FD0D0A1EB045101F54D
:104C6000801149085FEA300001EB04510ED350F186
:104C7000000038BF12FA0EFE08D1BDE81040C9E7A7
:104C8000401C38BF5FEA4202CAD1C3E7BDE810400A
:104C90004FEA410313F5001F38BF7047A1F1C0412F
:104CA00000F010BB9EEA445F08D011EA5E0FBDE839
:104CB000104004BF01F0004100207047BDE81040E3
:104CC00070B500F0B1FA00BF64FBBE3E0000E0FF2B
:104CD00002494FF0000000F05CBF00BF0000F87F09
:104CE000491058BFC1F140415B1058BFC3F1404368
:104CF0008B42EFF3008070472DE9C04130B4DFF8FC
:104D0000A0C23CEA111418BF3CEA131400F0EC8076
:104D100081EA03051CEA111444EAD57418BF1CEAA1
:104D2000131500F0C780A4EB05044FF0004545EAD9
:104D3000C12145EAC32341EA505143EA525304F1E9
:104D40007F74994204F500344FEAC0204FEAC22232
:104D500008BF904200F09C804FEA13650FF24016A6
:104D6000765D4FEA134506FB05F7C7F1807706FB32
:104D700007F74FEAD737A7FB03687642C8F58038B4
:104D8000A7FB06CE38BFA8F1010807FB08E64FF0E5
:104D9000000EA6FB028CE6FB03CEDCF1000CCEF18C
:104DA000004E38BFAEF1010EA6FB0C584FF00007C5
:104DB0004FF00005E6FB0E87A1FB08C6A0FB07CE5F
:104DC00016EB0E0645F10005E1FB076515F1E04E17
:104DD0007EBFA4F580345FEA46066D4116F1800778
:104DE00045F100054FEA17274FEA066647EA0567CF
:104DF000A6F1DE46B6F1805F4FEA15251FD9384689
:104E000024F0010C05EBC471BCF1FE6F01EB0C1139
:104E100002D8F0BCBDE8008124425CBF01F5801ED1
:104E20009EEAC47F02D4F0BCBDE80081244238D49D
:104E3000F0BCA1F1C041BDE8004100F043BA4FEA27
:104E4000D22242EA43524FEAD323A7FB02864FEA1B
:104E5000D02040EA415007FB03661EEA0E0F4FEADE
:104E6000D12105FB026658BFA6EB0056B6EB0056F3
:104E70004FEA520E4EEAC37E18EB0E0E56EB530E5F
:104E8000BDD518EB02085E417F1C55F10005B6E761
:104E90004FF480154FF000074FF000064FF0000868
:104EA000ADE7F0BC4FF0000001F1C04101F000415E
:104EB000BDE8008111EA0C1F0CEA131500D00CE0CC
:104EC00013EA0C1F00F025804FF00000F0BC81EACF
:104ED000030101F00041BDE80081F0BCBDE80041E4
:104EE00081EA030100F0EEB9F0BCBDE8004170B505
:104EF00000F09AF9097EFC3E00F007B881EA030150
:104F00004FF0000001F00041704781EA030100F01A
:104F1000D9B9F0BCBDE800414FF00000214970470D
:104F2000FFFDFBF9F7F5F4F2F0EEEDEBE9E8E6E46E
:104F3000E3E1E0DEDDDBDAD8D7D5D4D3D1D0CFCDF5
:104F4000CCCBCAC8C7C6C5C4C2C1C0BFBEBDBCBB2E
:104F5000BAB9B8B7B6B5B4B3B2B1B0AFAEADACAB29
:104F6000AAA9A8A8A7A6A5A4A3A3A2A1A09F9F9E03
:104F70009D9C9C9B9A9999989797969595949393B5
:104F8000929191908F8F8E8E8D8C8C8B8B8A89894C
:104F900088888787868585848483838282818180CF
:104FA0000000FF070000F87F51EA030C17D41CF53E
:104FB000801F58BFBCF5801F00F10680994218BFC2
:104FC000704708BF9042704707D711F5801F58BF40
:104FD00013F5801F19D499427047894270471CF518
:104FE000801F08D5BCF5801FF7D58B4218BF7047CE
:104FF00008BF824270474FF4001C1CEB410F38BFC2
:105000001CEB430F01D28B42704770B500F00CF9D6
:10501000922449004FF000514FF08053FFF760BEDB
:105020004FEA41034FEA5353A3F58063D3F11E03C4
:10503000C8BFD3F1210C0CDD4FF0004242EAC1227F
:1050400042EA505232FA03FC8CEAE17CACEBE170AC
:105050007047102BC4BF0020704703F5787CBCF16B
:10506000FF3F04D06FF0004282EA2100704770B524
:1050700000F0DAF84992248000207047F2E710F03F
:10508000004248BF4042B0FA80F310FA03F10AD060
:10509000C3F11D0303F580634FEA415002EB035255
:1050A00002EBD12170474FF000007047B0FA80F357
:1050B00010FA03F10AD0C3F11D0303F580634FEA30
:1050C00041504FEA035202EBD12170474FF00000EC
:1050D00070470000DFF848C170B51CEA111E1EBF02
:1050E0001CEA13159EEA0C0F95EA0C0F00F06F8076
:1050F00081EA030423EA4C134EEAD47E21EA4C11E0
:1051000041F4801143F48013AE44A1FB024CA0FB98
:105110000365AEF17F7E361955EB0C05A1FB034C00
:105120004CF10003A0FB021C16EB0C06654153F189
:105130000003094218BF46F0010613F4007F0BD1AB
:105140004FEA03314FEA0530340341EA155140EA92
:1051500016506FF003020AE04FEAC3214FEAC52060
:10516000F40241EA555140EA56506FF0020202EB58
:105170002E4201EB025585EACE710AD05FEA440C5B
:1051800018BF24F0004450F1000041F1000120EA72
:10519000D47040F2FE7C624500D270BDA84214BFBC
:1051A0004FF080444FF04044002E08BF0024BEF171
:1051B000806FA8BFA1F1C041BDE8704080F282803D
:1051C0004FF0000001F1C04101F0004170479EEA3C
:1051D0000C0F0CEA131518BF95EA0C0F06D04FF010
:1051E000000081EA030E0EF0004170BD00F01CF8D3
:1051F0008900013E00F007B800F009B84FEA430CFF
:105200005FEA5C5C08D081EA030100F05BB84FEA1A
:10521000410C5FEA5C5CF6D14FF000000149704739
:105220000000FF070000F87F0EF1020E2EF0030EC3
:105230005EF8046B364205D4012A43EB030515F5ED
:10524000001F12D8012841EB010C1CF5001F0CD8DF
:105250000ED14FEAD17C15F5001F0CEB4C0C0CF174
:10526000020C08BF4CEBD37C04E04FF0080C01E0CB
:105270004FEAD37C0CEB4C0526FA05F606F0070640
:10528000B6F1040C06D20EEB860CBDE870404CF073
:10529000010C6047DFE80CF0090B02024FF00041FF
:1052A0004FF00000A1F5002170BD194610460128FD
:1052B00051EB010418BFD4F5001484BF002001F0A5
:1052C000004170BD0808A0F500114FEA3101704798
:1052D00091EA030F10B581F000413FF559AC83F01E
:1052E000004300F009B8000010B591EA030F48BF71
:1052F00083F000433FF54CAC841A71EB030C07D2EA
:1053000012198CF0004C43EB0C03001B61EB0C01F9
:10531000DFF8A4E14FEA1154A4EB135C1EEA430F3B
:1053200018BF9EEA445F00F0B08023EA6E03524249
:1053300021EA0451C3EB6E0338BF5B1EDCF1200E83
:1053400025D322FA0CFE10EB0E0043FA0CFE41EBC3
:105350000E01CCF1200E03FA0EFE10EB0E0051F1FF
:105360000001CCF1200E29D412FA0EF201EB045107
:10537000BDE8104058BF7047401C1CBFB2F1004F41
:10538000704700280CBF491C20F00100704712EB49
:10539000020E43EB030218BF4FF0010E4EEA420229
:1053A000ACF1200CDCF11E0E54D943FA0CFE10EBCC
:1053B0000E0051F1FF31CCF11E0ED5D50EF1010ECC
:1053C00012FA0EFE404141EB010101EB445C5FEA41
:1053D0005C5C10D910EBDE7001EB045138BFBEF1FC
:1053E000004FBDE8104018BF704700280CBF491C93
:1053F00020F00100704730D24FEAD42C11F5001193
:1054000024F400641BD0B1FA81F20B3AA41AA41E52
:10541000D2F12003914030FA03F31943904001EB9D
:10542000CC71002C01EB0451BDE81040A8BF7047BF
:1054300001F1C0414FF0000001F000417047B0FAA7
:1054400080F310FA03F100D110BDE41A173C4805AF
:10545000C90AE4E701EB045110BD491001EB045106
:10546000BDE810404FEA300002E04FF00001704705
:105470004A0008BF0042F8D0B2F5001F28BF7047AD
:1054800001F000414FF0000070479EEA445F07D0F2
:1054900011EA5E0FBDE8104004BF002100207047F4
:1054A000BDE8104070B5FFF7BFFE00BF40DFF63E1D
:1054B00083F00041104670470000E0FF43004FEAD0
:1054C000D30C4FEA3C0C43401FBF40070CF1605126
:1054D00013F0FE4F70471CF0006F03D100200CF05A
:1054E000004170470CF0004343EA507010B540EAA9
:1054F000CC0000F05CFA00BF000000924FEA00010F
:10550000FFF7E0BE4FF000414FF00000A1F5002191
:105510007047000090EA010F48BF81F0004100F1A0
:10552000CA82421A3CBF801A89184FEAD0524FF003
:105530007F4C1CEA410FA2EBD15318BF9CEA026FCB
:1055400000F03B804FF0004C4CEA00204CEA012177
:1055500021FA03FC10EB0C0C1ED202F1FF325FEAC1
:105560001C2040EBC25038BF70471CF07F0F4FEA41
:10557000400C18BFBCF17F4F38BF7047C3F1200308
:10558000994008BF20F00100BCF17F4F38BF704741
:10559000A0F1C04000F051BA4FEA3C00000A40EBD5
:1055A000C25028BF1CF0FF0F4FEA400CE6D018BFD6
:1055B000BCF17F4F38BF7047EAE79CEA026F05D025
:1055C00010EA5C0F08BF00F00040704710B500F013
:1055D000EEF900BF64FBBE3E401058BFC0F1404032
:1055E000491058BFC1F140418142EFF3008070473C
:1055F0004FF47F0C1CEAD0121EBF1CEAD11392EAB2
:105600000C0F93EA0C0F00F0858090EA010F48BF61
:1056100042F4807240F4000C41F400002CF07F4111
:1056200020F07F4000B58142A2EB03020FF2081C7C
:10563000ACEB504EC0F100009EF800E04FEA4E0E79
:1056400000FB0EFC38BF49004FEA2C1C02F5FA02A1
:105650000CFB0EF34FEACE1E4FEA112C4FEAC1218C
:105660000EEB635E42EB22420EFB0CFC4FEA1C5336
:1056700000FB03114FEA112C4FEA01310EFB0CFC29
:105680004FEADC4C00FB0C11C14228BF09184CEB5F
:1056900003335DF804EB10EB410143EBC250B2F56C
:1056A0007C0F38BF704729D512F0F00F1CBF00F1F6
:1056B000C04000F000407047008182838485868767
:1056C00088898B8C8D8E8F919293959697999A9CC1
:1056D0009D9FA0A2A3A5A7A8AAACAEB0B2B3B5B730
:1056E000B9BCBEC0C2C5C7C9CCCED1D4D7D9DCDF06
:1056F000E2E6E9ECF0F3F7FAFE0000004FEA400CB6
:105700000CF1807CBCF17E4F28BF7047B0F1C040E7
:1057100000F093B990EA010F0CEAD11348BF42F4AC
:105720008072624538BF634507D213F47F0F16D0ED
:1057300080EA010000F00040704710B500F037F932
:10574000097EFC3E00F005B880EA010000F0004050
:10575000704780EA010000F0004000F06EB912F4DA
:105760007F0F04BF0248704780EA010000F065B96E
:105770000000C07F41000B0ED3F19E0208D950F407
:1057800000034FEA032323FA02F048BF4042704768
:1057900010B500F00CF900BF49922480002070473A
:1057A0006FF0004282EA200070470000C10DD1F185
:1057B0009E0206DB4FEA002343F0004323FA02F087
:1057C0007047004207D54FEA4001B1F1FE4F02D2C7
:1057D0004FF00000704710B500F0E9F849922480BE
:1057E000002070476FEA20007047000010F0004171
:1057F00048BF4042B0FA80F310FA03F2C3F19D03B0
:105800000BD051EAC35101EB1220530638BF704749
:1058100000F1010008BF20F001007047B0FA80F3EA
:1058200010FA03F2C3F19D030AD0D90501EB12204F
:10583000530638BF704700F1010008BF20F0010097
:105840007047000050EA010C00F113801CF5000FB6
:1058500058BFBCF5000F01D48842704707D710F538
:10586000000F58BF11F5000F15D4884270478942C8
:1058700070471CF5000F04D5BCF5000FF7D5814229
:1058800070474FF0807C1CEB400F38BF1CEB410F82
:1058900001D28142704710B500F089F89224490086
:1058A0004FF000504FF08051FFF796BE4FF47F0C41
:1058B0001CEAD0121EBF1CEAD11392EA0C0F93EA25
:1058C0000C0F00F0478090EA010F48BF42F480724D
:1058D0004FF0004C4CEA00204CEA012102EB03029D
:1058E000A0FB0113A2F50002002918BF43F0010339
:1058F0005B0028BF4FEA330342EB22425FEA132CDE
:105900004CEBC2502EBFBCEB436FB2F57C0F70471F
:105910004FEA036CBCF1004F08BF20F00100B2F564
:105920007C0F38BF70470BD582F0FF0212F5803F25
:10593000C8BF704700F1C040D8BF00F000407047BA
:1059400000F5000C5FEA4C0C48BF7047B0F1C04056
:1059500000F073B890EA010F0CEAD11348BF42F48B
:105960008072624538BF634504D280EA010000F0CE
:105970000040704710B500F01AF800BF8900013EE2
:1059800000F007B800F009B85FEA410C5FEA1C6C50
:1059900008D080EA010000F050B85FEA400C5FEAEE
:1059A0001C6CF6D14FF00040A0F5800070470EF15E
:1059B000020E2EF0030E5EF8044B244204D44FEA8C
:1059C0004102B2F17F4F11D84FEA4003B3F17F4F4C
:1059D0000CD80ED14FEAD07CB2F17F4F0CEB4C0CBF
:1059E0000CF1020C08BF4CEBD17C04E04FF0080C2A
:1059F00001E04FEAD17C0CEB4C0324FA03F404F0F1
:105A00000704B4F1040C06D20EEB840CBDE8104080
:105A10004CF0010C6047DFE80CF0070802024FF081
:105A20000040A0F5800010BD0846420018BFD2F12A
:105A3000807288BF00F0004010BDFF2141EAD050C5
:105A4000C005704751EA000C00F113801CF5000FEF
:105A500058BFBCF5000F01D48142704707D711F53C
:105A6000000F58BF10F5000F15D4814270478942CE
:105A700070471CF5000F04D5BCF5000FF7D5884220
:105A800070474FF0807C1CEB410F38BF1CEB400F80
:105A900001D28842704780EA010081EA000180EA71
:105AA0000100FFF7F8BE000090EA010F48BF81F047
:105AB00000413FF536AD421A04D882F00042A0EB17
:105AC000020011444FEAD0524FF07F4C1CEA410FC4
:105AD000A2EBD15318BF9CEA026F4AD04FF0004CA2
